:100000000C94FD1F0C942E200C942E200C942E206A
:100010000C942E200C942E200C942E200C946CAD5D
:100020000C942E200C942E200C942E200C942E2018
:100030000C942E200C942E200C942E200C9491BF06
:100040000C942E200C942E200C942E200C942E20F8
:100050000C942E200C942E200C942E200C942E20E8
:100060000C942E200C9416AE0C9445AE0C942E20BD
:100070000C942E200C942E200C942E200C942E20C8
:100080000C942E200C942E200C942E200C942E20B8
:100090000C9480AE0C94AFAE0C942E200C942CB229
:1000A0000C942E200C94BEBF0C942E200C942E2069
:1000B0000C942E200C942E200C94EBBF0C942E202C
:1000C0000C942E200C942E200C9449B80C94EAAE7B
:1000D0000C9419AF0C942E200C942E200C942E20EE
:1000E0000C942E20203F6C3F753F423F5B3F7E3F8C
:1000F0000D40C53FBC3FA93FCE3FE33FF63F873FA2
:10010000963F193F2740164037403F40193F474030
:10011000193F5940B3448D452946BC44E644DF4469
:100120003F45D144C645ED44C6454645C6452946EA
:100130004C456E4584454B495A4963496E49F24BDB
:10014000B649F24BF24BF24BC349F24B6049CC49F2
:10015000F24BD849E2496F4BF24BF24BF24BF24B68
:10016000F24B794B814B884B914BA24BF150DA53B8
:100170003D510A511B514E518151DA53DA532152EC
:10018000DA53C551DA537051DA53DA5354526D527F
:100190008652DA532C51D6510852DA5332525F51FB
:1001A000DA53EF51DA539F52B052DA53DA53925185
:1001B000A351B451DA53C152F15243520A53DA53A4
:1001C000DA53DA531B5326533753485359536A5360
:1001D0007B5357614661B7614062166407643066BD
:1001E00053637471D3647471346674714B667A6747
:1001F0006968FF6F4D6256627062306656621E63B8
:100200002263F6B4F6B4FBB4FBB4FBB400B500B59E
:1002100000B513B505B505B520B524B52AB52EB57D
:1002200032B538B53CB540B54FB546B54AB55AB507
:100230005EB564B568B56CB572B576B57AB589B595
:1002400080B584B5A3B5A8B5ADB5B2B5B7B5BCB5E5
:10025000C1B5C6B5D4B5CBB5D0B503B608B60DB6E5
:1002600012B617B61CB621B626B635B62BB630B6C2
:10027000B0C3C8C3CCC3D0C3D4C3F9C3D8C3F9C3B4
:10028000F9C3F9C3DCC3E0C3E4C3DED0DED0EED0F3
:100290000ED105D116D11ED131D14CD189D1DED8A4
:1002A000E4D8EBD8F2D800D916D91ED9FAD9F3D9A7
:1002B00009DA16DA2EDA47DA53DA97E092E09EE0AE
:1002C000A2E0ADE0C8E0ECE0F5E020E11BE129E1CF
:1002D0002EE132E142E14CE1F8E4F1E401E50CE524
:1002E0001CE531E551E574E57FE53CE635E644E69D
:1002F0004EE662E678E68FE6ADE6B9E624F4B7F4BA
:10030000A2F5F5F4A2F5A2F54CF475F4A2F5A2F568
:1003100022F583F54AF5A2F5A2F5A2F5A2F5A2F51C
:10032000A2F5A2F5A2F5A2F5A2F5A2F565F5A2F552
:10033000A2F5A2F5A2F5A2F5A2F5A2F518F49CF497
:10034000A2F5DCF486F4A2F53FF464F4A2F5A2F57C
:10035000A2F5A2F52FF53804EE036004A004000511
:1003600002059C034403F20498049C04C6036C0336
:100370004C045E03D80376037C04B2047203BA0211
:1003800018042004D002C8045403AC04F003320360
:100390009E0408045A037E0414035204D603E204A4
:1003A000B402A403A403E602E002E002E002E002D9
:1003B000E002E002A403E002E002E002E002E60262
:1003C000E602E602E602E602E602E002E002A4033A
:1003D000A403E60202030203C20302030203C203F0
:1003E000C203C0047404C0047404C0047404C004D0
:1003F000720472047204720472047204720472044D
:1004000072045803C0047404C0047404C004740467
:10041000C0047404C0045803C00472047204740459
:10042000C00472047404C0047404C0045803AE030E
:100430006E03AE036E03AE036E03AE036E03AE0334
:100440006E030A040A040A048A038A030A040A04DB
:100450000A048A038A03F803F803F803D004D004DB
:10046000F803F803F803D004D004AA038004AA0315
:100470008004AA038004AA038004AA037C03036EF9
:10048000DB363D9A9999993DABAAAA2A3E00000015
:10049000803F084AD73B3BCE016E84BCBFFDC12FD5
:1004A0003D6C74319ABD56833DDA3D00C77F11BE65
:1004B000D9E4BB4C3E916BAAAABE000000803F0766
:1004C0002C7AA5BA6CC590DA3B9365FC8BBC53F8CB
:1004D00010FD3C5692834DBD879D3AB63DCBC9BFBA
:1004E0005BBE73DA0FC93F05A84CCDB2D44EB93804
:1004F00036A9020C50B9918688083CA6AAAA2ABE41
:10050000000000803F08000000BE922449123EAB6C
:10051000AAAA2ABECDCCCC4C3E00000080BEABAA1D
:10052000AAAA3E00000000BF000000803F000000BB
:100530000000084178D3BB4387D1133D190E3CC35B
:10054000BD4282AD2B3E68EC8276BED98FE1A93EDA
:100550004C80EFFFBE01C4FF7F3F000000000000A1
:100560000D9492820D943D3C0D94A51C0D94797FC1
:100570000D94A3650D94061B0D9483320D94CA2E21
:100580000D94E1680D9402580D94EB950D9466A3BB
:100590000D9425890D9491010D943A260D94F195B1
:1005A0000D947F1B0D949C8B0D940E140D9426942A
:1005B0000D94717F0D94C83D0D945F390D94F946EB
:1005C0000D94DF7E0D949F8A0D9424AD0D94DC7EF6
:1005D0000D94FF900D9462370D94D0160D94A96A76
:1005E0000D9450470D94C4590D9438B10D94072CB7
:1005F0000D9467090D9402910D94DEA20D94580E8E
:100600000D94765D0D94CDB70D94EF900D94240864
:100610000D94C53D0D94A43E0D94FF240D94D681F8
:100620000D9413730D94CA040D94421C0D94AF04E1
:100630000D94EE590D948D430D946D390D94C17D3B
:100640000D941AB50D94DE6B0D94625B0D94C1721E
:100650000D9443380D9469910D946A1D0D94161FE5
:100660000D946C210D94C31B0D9477290D9488A7CC
:100670000D94B77F0D9497110D94D7810D940E3A78
:100680000D94313E0D94F7900D94D4190D94136B85
:100690000D94895A0D946E950D94910C0D94B76F2D
:1006A0000D94525E0D941D330D948B1B0D94DC7ACA
:1006B0000D94FFB80D94091C0D94AD3C0D94641A73
:1006C0000D948F630D94F83D0D9425150D94CB3842
:1006D0000D94D1380D9461390D94281A0D9468BA8F
:1006E0000D94D5810D94F41A0D94AA3E0D94A21A7E
:1006F0000D94CC100D94B2A40D94BEBA0D94F78A4B
:100700000D94363F0D947E2F0D947C3E0D94D74270
:100710000D9465390D947DBA0D944D390D94373C87
:100720000D943E440D94143A0D9430390D94934336
:100730000D9473390D94C3920D94AF190D94FD541B
:100740000D944D1F0D94D0040D94D67E0D946033FE
:100750000D944B390D94BABA0D9449390D9463BA7E
:100760000D94AE9C0D945D460D94C4670D940E8A55
:100770000D94BF3D0D9491340D9463390D94AE8763
:100780000D9488080D94D6B70D94B3560D941D1A88
:100790000D94BD0F0D9412330D94B50E0D94A03A27
:1007A0000D941EA00D9457990D944E680D946B1CDA
:1007B0000D94941A0D944A7B0D94ED550D94CE41F1
:1007C0000D94E96C0D94157B0D9421380D94460C15
:1007D0000D944D840D94CFA60D94D8820D94431999
:1007E0000D94B51B0D946C780D94DA210D94FC1DBD
:1007F0000D949BBA0D9485710D94BA560D94E70C27
:100800000D9401100D945D340D9408240D94457FD2
:100810000D94EA1B0D947BBA0D944EA70D94858D13
:100820000D94843E0D94C8550D9426180D94C23D28
:100830000D94361B0D944B800D9445750D94EE026E
:100840000D944D1B0D94E3930D942C320D94F17F78
:100850000D945F180D94502A0D9423190D949D77D3
:100860000D94345C0D949A3A0D940CA40D94880167
:100870000D942F190D94FC570D94763E0D94C65887
:100880000D94D1810D9416910D94D23D0D94F17B70
:100890000D9470150D9412820D944D1A0D94636A87
:1008A0000D940F920D94511C0D9482AC0D941B6904
:1008B0000D94CC580D94A58D0D9437A90D94760701
:1008C0000D9449190D94F0B10D9485A20D949301E6
:1008D0000D9456800D94ED900D9426320D949883CE
:1008E0000D949D2B0D946EB90D94AFB80D945A9D37
:1008F0000D94E9C10D942D910D94C21A0D94271CED
:100900000D94BCBA0D9415020D9460A50D947F81D1
:100910000D94C24E0D9468A60D94059B0D94C07E57
:100920000D94F79B0D948F010D9434670D94674DD2
:100930000D94FB190D943FBC0D94091A0D94D31B13
:100940000D9475190D943E910D94D3A30D944E8082
:100950000D9412690D940A580D949F1B0D94966086
:100960000D945C800D94D41A0D94B7340D949D1899
:100970000D9423330D945D390D94B1640D94DF6DA6
:100980000D94FDB80D94CC860D946A3E0D94618251
:100990000D94851B0D949D5C0D94D2B00D94B0AA5E
:1009A0000D949DBA0D94A8000D944C570D94693F79
:1009B0000D942A390D94E7900D94DD560D94443230
:1009C0000D94CB5B0D94861C0D941F540D94105800
:1009D0000D9407330D94EA900D94F1340D949B53CC
:1009E0000D946F3F0D94DA190D94BB810D94677DC2
:1009F0000D94AF850D94A8170D948F140D94FE0AD5
:100A00000D9484190D94A5190D9499010D94A5B414
:100A10000D94E8020D9417410D94B6B30D94104057
:100A20000D94E59F5265616368656420436F6D6D49
:100A3000616E6420232569005265616368656420E6
:100A4000436F6D6D616E64202325690044434D2022
:100A50006261642068656164696E670043726173F6
:100A6000683A2044697361726D696E6700417574FC
:100A70006F54756E653A204661696C656400417516
:100A8000746F54756E653A205375636365737300B4
:100A90004175746F54756E653A2053746F7070654C
:100AA00064004175746F54756E653A2053746172B9
:100AB000746564004D6F746F7220546573743A20CE
:100AC00053616665747920537769746368004D6F6C
:100AD000746F7220546573743A2076656869636C2C
:100AE00065206E6F74206C616E646564004D6F7478
:100AF0006F7220546573743A205243206E6F7420D5
:100B000063616C696272617465640061626C6564E2
:100B10000A0064697300656E000A436F6D4D6F745F
:100B200025643A2025342E32662C2025342E326658
:100B30002C2025342E32660A0043757272656E745D
:100B4000005468726F74746C65004F66660A004DDD
:100B50006F746F7220436F6D703A20004D6167258E
:100B600064206F66663A2025342E34662C202534A6
:100B70002E34662C2025342E34660A004D61672001
:100B80004465633A2025342E34660A00436F6D7045
:100B90006173730A004661696C6564210043616C8E
:100BA0006962726174696F6E2053756363657373F4
:100BB00066756C21005448524F54544C45004355BF
:100BC0005252454E54005354415254494E472043CB
:100BD000414C4942524154494F4E004E6F74206C73
:100BE000616E64656400746872206E6F74207A654B
:100BF000726F005243206E6F742063616C69627281
:100C00006174656400636865636B20636F6D706118
:100C1000737300636F6D70617373206469736162D5
:100C20006C65640A004672616D653A205452490051
:100C30005472696665637461206261736564206FD4
:100C40006E2056332E322E3100434F4D50415353B8
:100C500020494E4954204552524F5200455343209B
:100C600063616C20696E7075743A20257520257556
:100C700020257520257520206F75747075743A20B5
:100C800025752025752025752025750A00455343B7
:100C90002043616C3A2070617373696E67207468D9
:100CA000726F74746C65207468726F7567682074F5
:100CB0006F20455343732E0A00456E746572696E4A
:100CC00067204553432043616C3A20726573746119
:100CD00072742041504D2E0A006C6F61645F616C2C
:100CE0006C20746F6F6B20256C7575730A00646FD0
:100CF0006E652E004669726D77617265206368616A
:100D00006E67653A2065726173696E67204545506C
:100D1000524F4D2E2E2E0A004261642076617220C1
:100D20007461626C65004261642076617220746156
:100D3000626C650A002D004657205665723A2025E0
:100D4000640A00496E697469616C6973696E672031
:100D500041504D2E2E2E000A526561647920746F29
:100D600020464C5920000A0A496E69742054726961
:100D70006665637461206261736564206F6E2056DE
:100D8000332E322E310A0A467265652052414D3AA1
:100D90002025750A004C6F73742047505321004C76
:100DA0006F77204261747465727921005472696DA5
:100DB000207361766564006261726F6D657465723F
:100DC0002063616C6962726174696F6E20636F6D1C
:100DD000706C6574650043616C6962726174696E00
:100DE00067206261726F6D657465720047524F557E
:100DF0004E442053544152540041726D3A20477979
:100E0000726F2063616C206661696C656400417279
:100E10006D3A20536166657479205377697463680D
:100E20000041726D3A204C65616E696E67004172D7
:100E30006D3A205468722062656C6F7720465300CB
:100E400041726D3A20416C742064697370617269FB
:100E500074790041726D3A204D6F6465206E6F7435
:100E60002061726D61626C650050726541726D3A0D
:100E70002048696768204750532048444F5000502D
:100E8000726541726D3A204261642056656C6F63F1
:100E90006974790050726541726D3A204E656564DF
:100EA000203344204669780050726541726D3A20C3
:100EB00047505320476C69746368005072654172F3
:100EC0006D3A204143524F5F42414C5F524F4C4C70
:100ED0002F50495443480050726541726D3A204387
:100EE0006865636B20414E474C455F4D415800504B
:100EF000726541726D3A20436865636B2046535FAB
:100F00005448525F56414C55450050726541726DD0
:100F10003A2043683726436838204F707420636155
:100F20006E6E6F742062652073616D65005072652E
:100F300041726D3A20436865636B20426F61726451
:100F400020566F6C746167650050726541726D3A2E
:100F5000204779726F2063616C206661696C6564FB
:100F60000050726541726D3A204779726F73206E3E
:100F70006F74206865616C746879005072654172A5
:100F80006D3A20416363656C73206E6F74206865F1
:100F9000616C7468790050726541726D3A20494EF7
:100FA00053206E6F742063616C6962726174656452
:100FB0000050726541726D3A20636865636B20660C
:100FC000656E63650050726541726D3A20436865D5
:100FD000636B206D6167206669656C6400507265A3
:100FE00041726D3A20436F6D70617373206F666656
:100FF0007365747320746F6F20686967680050723E
:101000006541726D3A20436F6D70617373206E6F2E
:10101000742063616C69627261746564005072650A
:1010200041726D3A20436F6D70617373206E6F74FF
:10103000206865616C7468790050726541726D3A20
:1010400020416C7420646973706172697479005016
:10105000726541726D3A204261726F206E6F74202A
:101060006865616C7468790050726541726D3A20F0
:101070005243206E6F742063616C696272617465A3
:101080006400504552463A2025752F257520256C61
:10109000750A008D000100424154545F4D4F4E4986
:1010A000544F520000000000A80001004241545477
:1010B0005F564F4C545F50494E00000000A900019C
:1010C00000424154545F435552525F50494E000014
:1010D00000008E000400424154545F564F4C545F50
:1010E0004D554C540000008F000400424154545FA1
:1010F000414D505F504552564F4C540091000300F3
:10110000424154545F434150414349545900000007
:1011100000140002004C4F475F4249544D41534B6D
:10112000000000000000184F0100640005390200B3
:10113000C2014D4C02008403B04F0A00D002F64BAE
:101140000A0032008B7D0A000A00F3240A008C009A
:1011500089250A00E803547C040020031D2C0100AB
:101160003200775021005A00B9230200A401312037
:101170000200FA00B42302006400383E6400A401B7
:10118000B7470A001400533B0A001400232302004F
:1011900026021F23640096001B230200D002CF41C9
:1011A0000200B603FE220200C2013C200A002C010C
:1011B0003D200200DC00F053E803C800402A0A008A
:1011C00032000253595349445F53575F4D524556BD
:1011D0000000000000D511000000000153595349E0
:1011E000445F53575F545950450000000001D71128
:1011F000000020410253595349445F544849534D1C
:1012000041560000000070D8110000803F02535981
:101210005349445F4D59474353000000000000719B
:10122000DA1100007F430253455249414C305F427E
:10123000415544000000000031DC110000E642028C
:1012400053455249414C315F424155440000000032
:101250000032DE11000064420154454C454D5F44AC
:10126000454C415900000000000073E011000000EF
:10127000000252544C5F414C54000000000000003A
:10128000000000A0E1110080BB4404524E47464ECE
:10129000445F4741494E0000000000001EE311CDAD
:1012A000CC4C3F0146535F424154545F454E41424E
:1012B0004C45000000C1E711000000000446535FE8
:1012C000424154545F564F4C54414745000097E803
:1012D00011000028410446535F424154545F4D4180
:1012E0004800000000000025EC110000000001464D
:1012F000535F4750535F454E41424C45000000004C
:10130000C3F0110000803F0146535F4743535F45E0
:101310004E41424C4500000000C6F1110000803FE4
:10132000024750535F48444F505F474F4F440000BF
:10133000000023F21100006643014D41475F454E16
:1013400041424C450000000000000092F4110000F2
:10135000803F01464C4F575F454E41424C4500008F
:101360000000000096F511000000000153555045A3
:10137000525F53494D504C4500000000009BF61150
:10138000000000000252544C5F414C545F46494EED
:10139000414C00000000A3F711000000000152536F
:1013A00053495F50494E0000000000000000001843
:1013B000F911000080BF04525353495F52414E4718
:1013C000450000000000000027FA110000A04001C5
:1013D00057505F5941575F4245484156494F520067
:1013E000001AFE11000000400352544C5F4C4F495C
:1013F000545F54494D4500000000A2041200409C77
:1014000045024C414E445F535045454400000000A6
:10141000000000D90812000048420250494C4F54C5
:101420005F56454C5A5F4D41580000001C0A12009F
:10143000007A430250494C4F545F414343454C5F4F
:101440005A00000000300C1200007A430254485247
:101450005F4D494E00000000000000000000B40E87
:101460001200000243025448525F4D4158000000F0
:1014700000000000000000B5101200007A44014690
:10148000535F5448525F454E41424C4500000000B6
:10149000B61212000000000246535F5448525F56D5
:1014A000414C55450000000000B8131200C07344C1
:1014B000025452494D5F5448524F54544C45000019
:1014C0000000B915120000E143025448525F4D4933
:1014D0004400000000000000000000C217120000DD
:1014E000FA43025448525F445A00000000000000D2
:1014F000000000003919120000C84201464C544D4A
:101500004F444531000000000000000000C81B12DD
:101510000000000001464C544D4F4445320000008D
:10152000000000000000C91C120000000001464C31
:10153000544D4F444533000000000000000000CA35
:101540001D120000000001464C544D4F444534002C
:101550000000000000000000CB1E1200000000018F
:10156000464C544D4F44453500000000000000003B
:1015700000CC1F120000000001464C544D4F444562
:1015800036000000000000000000CD201200000026
:10159000000153494D504C45000000000000000080
:1015A000000000CE211200000000034C4F475F42B4
:1015B00049544D41534B0000000000003C221200F2
:1015C000805F44014553430000000000000000001C
:1015D0000000000000BA2612000000000154554E21
:1015E0004500000000000000000000000000BB27D4
:1015F00012000000000254554E455F4C4F5700004A
:1016000000000000000000BD2A120000000002548B
:10161000554E455F48494748000000000000000063
:10162000BC281200007A44014652414D450000009A
:10163000000000000000000000952C120000803F18
:10164000014348375F4F5054000000000000000085
:101650000000982D1200000000014348385F4F50F1
:1016600054000000000000000000001F2E120000C7
:1016700000000141524D494E475F434845434B00EE
:1016800000000000202F120000803F02414E474C16
:10169000455F4D4158000000000000000022821408
:1016A00000A08C450152435F4645454C5F525000B7
:1016B00000000000000028FF110000C8420250484E
:1016C0004C445F4252414B455F5241544500002E0D
:1016D0000012000000410250484C445F4252414B0E
:1016E000455F414E474C45002F021200803B4501AB
:1016F0004C414E445F5245504F534954494F4E0060
:10170000003430120000803F04454B465F4348459B
:10171000434B5F54485245534800363112CDCC4CB0
:101720003F0444434D5F434845434B5F5448524553
:101730005348003B3512CDCC4C3F085243315F003B
:10174000000000000000000000000000AA3912465E
:10175000300000085243325F00000000000000002B
:101760000000000000AB5612463000000852433320
:101770005F00000000000000000000000000AC73EB
:101780001246300000085243345F000000000000A1
:1017900000000000000000AD90124630000008522A
:1017A00043355F0000000000000000000000000062
:1017B000AEAD12DC300000085243365F000000007E
:1017C000000000000000000000AFCB12DC30000081
:1017D000085243375F0000000000000000000000D6
:1017E0000000B0E912DC300000085243385F00000E
:1017F0000000000000000000000000B10713DC3012
:10180000000008524331305F00000000000000007B
:1018100000000000B22513DC3000000852433131D3
:101820005F000000000000000000000000B3431350
:10183000DC3000000252435F535045454400000035
:10184000000000000000C061130000F543044143A4
:10185000524F5F52505F500000000000000000DD5A
:10186000631300009040044143524F5F5941575F5A
:101870005000000000000000F467130000904004D6
:101880004143524F5F42414C5F524F4C4C0000006D
:1018900000F26B130000803F044143524F5F42410E
:1018A0004C5F5049544348000000F36F1300008020
:1018B0003F014143524F5F545241494E455200004F
:1018C0000000001B731300000040044143524F5FAF
:1018D0004558504F00000000000000003874139A73
:1018E00099993E08524154455F524C4C5F000000AC
:1018F0000000000000DF7813E82E00000852415479
:10190000455F5049545F0000000000000000E09671
:1019100013E82E000008524154455F5941575F00BB
:1019200000000000000000E1B413E82E0000084CA5
:101930004F495445525F4C41545F00000000000085
:10194000E7D213E82E0000084C4F495445525F4C33
:101950004F4E5F000000000000E8F013E82E00008A
:10196000085448525F524154455F00000000000097
:101970000000EC0E14B62E0000085448525F41439C
:1019800043454C5F00000000000000F11214E82EF7
:101990000000084F465F524C4C5F00000000000002
:1019A00000000000ED3014E82E0000084F465F50A4
:1019B00049545F00000000000000000000EE4E14DB
:1019C000E82E0000085354425F524C4C5F00000068
:1019D000000000000000E27014B62E00000853540E
:1019E000425F5049545F000000000000000000E327
:1019F0007414B62E0000085354425F5941575F00DB
:101A00000000000000000000E47814B62E0000087A
:101A10005448525F414C545F000000000000000039
:101A200000EB7C14B62E000008484C445F4C415437
:101A30005F000000000000000000E56C14B62E00FE
:101A4000000852454C41595F0000000000000000B2
:101A50000000000DE306D731000008434F4D504110
:101A600053535F00000000000000000093860FBD8C
:101A700029000008494E535F0000000000000000EC
:101A8000000000000003200F272C000008494E41F1
:101A9000565F0000000000000000000000006464C9
:101AA00009E43300000857504E41565F0000000023
:101AB000000000000000006529077A340000084398
:101AC0004952434C455F0000000000000000000048
:101AD00068F2062F340000084154435F0000000004
:101AE00000000000000000000066E508652F00000F
:101AF00008504F53434F4E5F0000000000000000AD
:101B0000000067020814300000085352305F0000E4
:101B100000000000000000000000006E6A0B991C2D
:101B20000000085352315F00000000000000000078
:101B3000000000006F410C991C00000841485253FE
:101B40005F0000000000000000000000009F5A0D30
:101B5000712D0000084D4E545F0000000000000091
:101B6000000000000000A66A062232000008424180
:101B700054545F000000000000000000000000243A
:101B8000920AD13E0000084252445F00000000006B
:101B900000000000000000000F5F0BCB3F000008BA
:101BA000474E445F000000000000000000000000FD
:101BB000000B861071270000084750535F0000009B
:101BC00000000000000000000000102B116922003E
:101BD000000853434845445F000000000000000037
:101BE0000000000CC011223E00000846454E43454F
:101BF0005F0000000000000000000000453A062BD6
:101C00003D000008475053474C495443485F00008B
:101C10000000000000460B11B422000008424152AF
:101C20004F474C5443485F00000000000000476EDF
:101C300010D5270000084D4F545F00000000000041
:101C4000000000000000005A110B52310000085241
:101C5000434D41505F000000000000000000000004
:101C6000C7600B543E0000084D49535F0000000060
:101C70000000000000000000002A180D6B2E00007C
:101C80000000000000000000000000000000000054
:101C900000000000000000000002005241575F53A6
:101CA000454E5300000000000000000066000000E8
:101CB000000002014558545F535441540000000095
:101CC0000000000000680000000000020252435FB4
:101CD0004348414E000000000000000000006A0080
:101CE0000000000002035241575F4354524C000071
:101CF000000000000000006C000000000002045022
:101D00004F534954494F4E000000000000000000AE
:101D10006E00000000000205455854524131000099
:101D20000000000000000000007000000000000241
:101D300006455854524132000000000000000000E7
:101D40000000720000000000020745585452413361
:101D5000000000000000000000000074000000000F
:101D6000000208504152414D5300000000000000A5
:101D70000000000076000000000000FF00000000EE
:101D80000000000000000000000000000000000053
:101D900000000042616420636F6E76657273696F44
:101DA0006E207479706520272553270A00556E6BC5
:101DB0006E6F776E20636F6E76657273696F6E20DB
:101DC000272553270A0025733A2025660A00257324
:101DD0003A20256C640A0025733A2025640A002500
:101DE000733A2025640A00454550524F4D206675D0
:101DF0006C6C00000000000006030000067609027B
:101E000000760F5A000100D00F30000000000000E3
:101E10000503000005CA090200CA0E960001006011
:101E20000FA0002C76D888674F0823C1DFAE59B1C8
:101E3000B796E5E453C63A51997696E6C284268968
:101E40008C9B62407C6FFCBC9C9F40BAA56FA590A8
:101E5000055A2A5C936B6C676DC11BE0E40D47F576
:101E600020E6B5D0ED902E009435770080841E00DA
:101E700000204E000000C833333333986E12834184
:101E8000EF8D21893BE655CFFEE6DBD1844B38F759
:101E90007C1D90A4BBE4243284725E8100C9F1EC05
:101EA000A1E53DDCDFE1E3E6E8EBEDEFF2F4F7F985
:101EB000FCFE000305080A0C0F111416181B1D2048
:101EC0002224276E616E00696E66004572726F7221
:101ED0003A2041505F48414C5F4156523A3A415690
:101EE00052416E616C6F67496E206F7574206F662A
:101EF000206368616E6E656C730D0A00474F494E32
:101F00004720444F574E20464F52204120524542D1
:101F10004F4F540D0A0050414E49433A20736368B5
:101F20006564756C65723A3A73797374656D5F694F
:101F30006E697469616C697A65642063616C6C6553
:101F4000646D6F7265207468616E206F6E636500EA
:101F500050414E49433A2041565253656D61706875
:101F60006F72653A3A74616B6520757365642066BB
:101F7000726F6D20696E736964652074696D657236
:101F80002070726F636573730050414E49433A206D
:101F90005350493020777269746520636F6C6C69A7
:101FA00073696F6E0050414E49433A205350493097
:101FB000207472616E7366657220636F6C6C6973F6
:101FC000696F6E00010210202008081020401020C8
:101FD00040800201020108040201010204081020ED
:101FE00040808040201008040201800402018040EB
:101FF0002010080402010804020101020408102054
:1020000040800102040810204080400505050507B6
:102010000508080808020202020A0A080804040463
:10202000040101010101010101030303030303038F
:1020300003040707070C0C0C0C0C0C0C0C0202021E
:102040000206060606060606060B0B0B0B0B0B0B11
:102050000B05000020002300260029002C002F0083
:102060003200000100000301060109010000220006
:10207000250028002B002E00310034000201000052
:10208000050108010B0100002100240027002A009F
:102090002D003000330001010000040107010A0196
:1020A000666C6967687420706C616E207265636528
:1020B0006976656400666C6967687420706C616E2F
:1020C000207570646174652072656A656374656407
:1020D00000327C8900EDD9687700000059000000CB
:1020E0000000000000D69FDCA81817AA90437327B1
:1020F000F6B968EDF4DED409FEE61C1C84DDE80BBD
:10210000992927000000000F03000000000099B784
:10211000335276941500F37C000026149E988F00AD
:1021200000006A31161D0CF1E900E7B73F360000E8
:102130000000000000AF669ED0385DD36C20B9541B
:1021400000007C77044C80387486EDCBFA57CBDCEA
:1021500019E2001DDF5506E5CB010000000000007C
:10216000000000002A310086DBD0BC54161315860F
:10217000004E44BD7F9A15159001EA49B51653A744
:102180008AEAF02FBD34AE0000000000000000001D
:10219000000000000000000000000000000000003F
:1021A000000000000000000000000000000000002F
:1021B000000000000000000000000000000000001F
:1021C00000000000000000000008CC31AA2C532EB3
:1021D00000204E4D4541200020534952462000200A
:1021E0004D544B2000204D544B3139200020756256
:1021F0006C6F782000B56206010300010601124FE2
:1022000024505542582C34312C312C303030332C62
:10221000303030312C33383430302C302A32360DD7
:102220000A245047434D442C31362C302C302C306E
:102230002C302C302A36410D0A245053524631306E
:10224000302C302C33383430302C382C312C302A90
:1022500033430D0A00C01200000096000000C201C6
:102260000000E100008025000001005459504500A5
:10227000000000000000000000000000020000005C
:10228000803F01024E415646494C544552000000E1
:10229000000000000003000000004100FF000000FB
:1022A000000000000000000000000000000000002E
:1022B000000000000100454E41424C450000000076
:1022C0000000000000000003000000803F040152F5
:1022D0004144495553000000000000000000000088
:1022E0000400000048430402414343454C00000001
:1022F000000000000000000000080000007A440018
:10230000FF000000000000000000000000000000CE
:10231000000000000000000024504D544B323230C9
:102320002C3230302A32430D0A24504D544B333175
:10233000332C312A32450D0A24504D544B33303161
:102340002C322A32450D0A24504D544B3339372C48
:10235000302A32330D0A0047505654470047504741
:102360004741004750524D430024505352463130AC
:10237000332C302C302C312C312A32350D0A24509C
:102380005352463130332C312C302C302C312A3200
:10239000350D0A24505352463130332C322C302C18
:1023A000302C312A32360D0A245053524631303304
:1023B0002C332C302C302C312A32370D0A24505338
:1023C00052463130332C342C302C312C312A3230DF
:1023D0000D0A24505352463130332C352C302C31D9
:1023E0002C312A32300D0A24505352463130332CCE
:1023F000362C302C302C312A32320D0A24505352D4
:10240000463130332C382C302C302C312A32430DCD
:102410000A24505352463135312C312A33460D0AA5
:1024200024505352463130362C32312A30460D0A70
:1024300024504D544B3331342C302C302C312C3132
:102440002C302C302C302C302C302C302C302C30AC
:102450002C302C302C302C302C302A32380D0A24E1
:10246000504D544B3333302C302A32450D0A245012
:102470004D544B3331332C312A32450D0A24504D03
:10248000544B3330312C322A32450D0A24505542F8
:10249000582C34302C6767612C302C312C302C3088
:1024A0002C302C302A37420D0A24505542582C34F7
:1024B000302C7674672C302C312C302C302C302C76
:1024C000302A37460D0A24505542582C34302C728D
:1024D0006D632C302C302C302C302C302C302A36A4
:1024E000370D0A00A0A20008A602000000000000AC
:1024F00000A8B0B3A0A20008A600290100000000B7
:1025000000D0B0B350414E49433A20446174614613
:102510006C61736820535049446576696365447201
:10252000697665722073656D6170686F7265206988
:1025300073206E756C6C0050414E49433A204461E3
:102540007461466C617368205350494465766963D1
:1025500065447269766572206E6F7420666F756E61
:1025600064004C6F672025752C2020202073746137
:1025700072742025752C202020656E642025750A34
:10258000000A2575206C6F67730A000A4E6F206C75
:102590006F67730A0A004E756D50616765733A2064
:1025A000257520205061676553697A653A20257545
:1025B0000A004D616E7566616374757265723A20CA
:1025C0003078253032782020204465766963653A7A
:1025D000203078253034780A004E6F2064617461B1
:1025E000666C61736820696E73657274656400253A
:1025F000750A0025752C0900444620706167652C1A
:10260000206C6F672066696C6520232C206C6F67D7
:1026100020706167653A2025752C0900464D542CC1
:102620002025752C2025752C2025532C2025532C56
:102630002025530A002C20002573002573002573E4
:1026400000252E326600252E326600252E326600C9
:10265000252E326600256600256C7500256C640009
:1026600025750025640025750025640025532C2060
:1026700000554E4B4E2C2025750A0050414E4943C3
:102680003A2041505F4261726F3A3A72656164204C
:10269000756E7375636365737366756C20666F72B0
:1026A000206D6F7265207468616E203530306D73F7
:1026B00020696E2041505F4261726F3A3A63616CEB
:1026C000696272617465205B335D0D0A0050414E92
:1026D00049433A2041505F4261726F3A3A726561F4
:1026E0006420756E7375636365737366756C2066BD
:1026F0006F72206D6F7265207468616E20353030A6
:102700006D7320696E2041505F4261726F3A3A6387
:10271000616C696272617465205B325D0D0A005004
:10272000414E49433A2041505F4261726F3A3A72DA
:1027300065616420756E7375636365737366756C2C
:1027400020666F72206D6F7265207468616E20352F
:1027500030306D7320696E2041505F4261726F3A74
:102760003A63616C696272617465205B315D0D0A68
:102770000004024142535F50524553530000000091
:10278000000000000C0000000000040354454D5000
:102790000000000000000000000000000008000031
:1027A0000000000104414C545F4F4646534554001D
:1027B00000000000000010000000000000FF00000A
:1027C0000000000000000000000000000000000009
:1027D00000000000000100454E41424C4500000051
:1027E000000000000000000003000000803F040122
:1027F00044495354000000000000000000000000A5
:102800000004000000FA430402414343454C000029
:102810000000000000000000000008000080BB4431
:1028200000FF0000000000000000000000000000A9
:1028300000000000000000000050414E49433A20D3
:1028400041505F4261726F5F4D53353631312074B4
:102850006F6F6B206D6F7265207468616E20313010
:1028600030306D7320746F20696E697469616C69B2
:102870007A650050414E49433A2041505F426172AF
:102880006F5F4D53353631313A206661696C65644E
:1028900020746F2074616B652073657269616C20B0
:1028A00073656D6170686F726520666F7220696E06
:1028B00069740050414E49433A2041505F42617271
:1028C0006F5F4D53353631313A204E554C4C2073A5
:1028D000657269616C206472697665720050414E60
:1028E00049433A206661696C656420746F207461A5
:1028F0006B65205F7370695F73656D2031303020C8
:1029000074696D657320696E206120726F772C2069
:10291000696E2041505F4261726F5F4D53353631B1
:10292000313A3A5F7570646174650050414E4943B5
:102930003A2041505F4261726F5F4D5335363131FD
:1029400020646964206E6F74206765742076616C02
:102950006964205350492073656D617068726F65BA
:10296000210050414E49433A2041505F4261726F0D
:102970005F4D533536313120646964206E6F7420A9
:102980006765742076616C696420535049206465E2
:1029900076696365206472697665722100466169B3
:1029A0006C656420746F2067657420484D4335382A
:1029B00034332073656D6170686F72650005014F77
:1029C000465300000000000000000000000000006E
:1029D000170000000000040244454300000000000E
:1029E00000000000000000000023000000000001C3
:1029F000034C4541524E0000000000000000000062
:102A0000000008000000803F01045553450000000D
:102A1000000000000000000000000027000000800F
:102A20003F01054155544F4445430000000000005C
:102A30000000000028000000803F01064D4F544375
:102A400054000000000000000000000000A400008E
:102A500000000005074D4F5400000000000000007A
:102A6000000000000000A5000000000001084F5217
:102A700049454E5400000000000000000000001610
:102A80000000000000010945585445524E414C00D9
:102A9000000000000000000029000000000000FF0E
:102AA0000000000000000000000000000000000026
:102AB00000000000000000256C642E2530376C6497
:102AC000002D006779726F5B25755D206469642055
:102AD0006E6F7420636F6E76657267653A20646905
:102AE00066663D2566206470730A002A00496E6997
:102AF00074204779726F0020002A00496E697420A3
:102B0000416363656C0043616C6962726174696FF3
:102B10006E204641494C45440A0043616C6962722B
:102B20006174696F6E207375636365737366756C2A
:102B30000A005363616C696E675B25755D3A2025F9
:102B40002E326620252E326620252E32660A004F50
:102B50006666736574735B25755D3A20252E326653
:102B600020252E326620252E32660A00506C6163C5
:102B7000652076656869636C6520255320616E6405
:102B800020707265737320616E79206B65792E0AEF
:102B9000006F6E20697473204241434B006E6F7367
:102BA00065205550006E6F736520444F574E006F7F
:102BB0006E206974732052494748542073696465D4
:102BC000006F6E20697473204C454654207369640D
:102BD00065006C6576656C004E6F20494E5320622F
:102BE00061636B656E647320617661696C61626CB0
:102BF0006500546F6F206D616E7920494E532062DD
:102C000061636B656E647300546F6F206D616E79E4
:102C100020616363656C7300546F6F206D616E7922
:102C2000206779726F7300020050524F445543542D
:102C30005F4944000000000000001F000000000089
:102C400005014143435343414C0000000000000094
:102C500000000021000000000005024143434F46F0
:102C60004653000000000000000000002D0000009E
:102C7000000005034759524F46465300000000002C
:102C8000000000000039000000000001044D505514
:102C9000364B5F46494C5445520000000000450049
:102CA0000000000000FF0000000000000000000025
:102CB0000000000000000000000000000046616904
:102CC0006C656420746F20626F6F74204D505536B0
:102CD00030303020352074696D6573004D505536A5
:102CE0003030303A20556E61626C6520746F206719
:102CF00065742073656D6170686F72650056616CF4
:102D000075657320646F65736E2774206D617463DD
:102D1000683B207772697474656E3A20253032788A
:102D20003B20726561643A2025303278200066616C
:102D3000696C656420746F20626F6F74204D50550C
:102D40003630303020352074696D65730054696DFC
:102D50006564206F75742077616974696E67206699
:102D60006F72207573657220726573706F6E736514
:102D70000004024750535F4741494E0000000000E5
:102D80000000000022000000803F01034750535F15
:102D9000555345000000000000000000002C00001A
:102DA00000803F04045941575F50000000000000BC
:102DB0000000000000001A00CDCC4C3E040552502B
:102DC0005F50000000000000000000000000001E36
:102DD00000CDCC4C3E010657494E445F4D41580052
:102DE00000000000000000002D00000000000508A9
:102DF0005452494D00000000000000000000000097
:102E00000041000000000001094F5249454E544165
:102E100054494F4E0000000000002E00000000004A
:102E2000040A434F4D505F424554410000000000EA
:102E30000000002800CDCCCC3D010B4750535F4D26
:102E4000494E534154530000000000002F00000081
:102E5000C04000FF00000000000000000000000073
:102E600000000000000000000000000200544F5469
:102E7000414C0000000000000000000000000500C0
:102E8000000000000101524553544152540000001B
:102E90000000000000000007000000000000FF002C
:102EA0000000000000000000000000000000000022
:102EB00000000000000004005000000000000000BE
:102EC0000000000000000000000000000000000002
:102ED000FF000000000000000000000000000000F3
:102EE000000000000000000004005000000000008E
:102EF00000000000000000000000000000000000D2
:102F00000004014900000000000000000000000073
:102F10000000000004000000000004024400000063
:102F20000000000000000000000000000008000099
:102F30000000000203494D4158000000000000005D
:102F40000000000000000C000000000000FF000076
:102F50000000000000000000000000000000000071
:102F600000000000000400524154455F52505F4D84
:102F70004158000000000000260000A08C4604011B
:102F8000524154455F595F4D415800000000000018
:102F9000002A0000A00C460402534C45575F5941DB
:102FA000570000000000000000002E0000007A44DE
:102FB0000403414343454C5F52505F4D415800006C
:102FC0000000003200000000000404414343454C6F
:102FD0005F595F4D415800000000000036000000BE
:102FE00000000105524154455F46465F454E41424F
:102FF00000000000003A000000000000FF00000098
:1030000000000000000000000000000000000000C0
:103010000000000004005448525F484F56455200DB
:103020000000000000000017000000E14300FF0066
:103030000000000000000000000000000000000090
:1030400000000000000002004D494E00000000009A
:103050000000000000000000000A00008089440217
:10306000015452494D000000000000000000000023
:1030700000000C000080BB4402024D4158000000DB
:1030800000000000000000000000000E000080EDC5
:1030900044010352455600000000000000000000FB
:1030A0000000000010000000803F0205445A0000AC
:1030B00000000000000000000000000000110000FF
:1030C00000000000FF000000000000000000000001
:1030D00000000000000000000000000008000000E8
:1030E00000000000000000000000000000000000E0
:1030F0000046300000010146554E4354494F4E00F2
:1031000000000000000000001D000000000000FFA3
:1031100000000000000000000000000000000000AF
:103120000000000000000041505F4D6F746F72732B
:103130003A206661696C656420746F206372656112
:103140007465207468726F74746C65206375727630
:1031500065000101544352565F454E41424C4500C3
:1031600000000000002E000000803F010254435286
:10317000565F4D49445043540000000000002F00AA
:10318000000050420103544352565F4D4158504392
:103190005400000000000030000000BA4202055355
:1031A00050494E5F41524D45440000000000000070
:1031B000310000008C4200FF000000000000000011
:1031C00000000000000000000000000000000000FF
:1031D00001020304050607010050494E00000000EB
:1031E000000000000000000000000000000050414E
:1031F000010150494E3200000000000000000000B4
:103200000000000100000080BF00FF00000000007F
:1032100000000000000000000000000000000000AE
:10322000000001004D4F4445000000000000000078
:10323000000000000031000000000005015245546C
:103240005241435400000000000000000000420012
:103250000000000005024E45555452414C0000004C
:10326000000000000000004E0000000000050343C5
:103270004F4E54524F4C0000000000000000000070
:103280005A00000000000104535441425F524F4C69
:103290004C00000000000000002E000000000001B3
:1032A00005535441425F54494C5400000000000053
:1032B00000002F00000000000106535441425F50FF
:1032C000414E00000000000000000030000000003F
:1032D00000010752435F494E5F524F4C4C000000C3
:1032E000000000003200000000000208414E474D7F
:1032F000494E5F524F4C00000000000000350000B6
:10330000A08CC50209414E474D41585F524F4C00B9
:10331000000000000000370000A08C45010A524365
:103320005F494E5F54494C540000000000000033D8
:103330000000000000020B414E474D494E5F5449CA
:103340004C00000000000000390000A08CC5020CF9
:10335000414E474D41585F54494C00000000000069
:10336000003B0000A08C45010D52435F494E5F5069
:10337000414E00000000000000003400000000008A
:10338000020E414E474D494E5F50414E0000000035
:103390000000003D0000A08CC5020F414E474D418A
:1033A000585F50414E000000000000003F0000A0A8
:1033B0008C4501104A535449434B5F53504400001D
:1033C000000000000041000000000000FF000000BD
:1033D00000000000000000000000000000000000ED
:1033E00000000000040154435F5859000000000031
:1033F0000000000000000013000000204004025400
:10340000435F5A00000000000000000000000000C0
:1034100017000000A04000FF0000000000000000B6
:103420000000000000000000000000000000000498
:1034300000524144495553000000000000000000C4
:103440000000070000007A44040152415445000086
:1034500000000000000000000000000B000000A0C1
:103460004100FF000000000000000000000000001C
:10347000000000000000000000000400535045451B
:10348000440000000000000000000000000F0000E9
:1034900000FA430401524144495553000000000022
:1034A0000000000000001B000000484304025350CD
:1034B0004545445F55500000000000000000001327
:1034C0000000007A43040353504545445F444E00D6
:1034D0000000000000000000170000001643040474
:1034E0004C4F49545F5350454544000000000000D4
:1034F0000007000000FA430405414343454C000027
:10350000000000000000000000001F000000C84292
:103510000406414343454C5F5A0000000000000090
:1035200000000023000000C84204074C4F49545FCC
:103530004A45524B00000000000000000B00000054
:103540007A4400FF000000000000000000000000BE
:103550000000000000000000000000801140114049
:103560007132733433321312113211129334131433
:103570005352310021030406080B2D0A09070504E4
:103580000241C011C051125354731211125152739F
:1035900014733231002102040506070809080607E2
:1035A000062403020102000120012011C0011100C4
:1035B0003132137413143312F112D3125100010279
:1035C0002325060746442342210001E0A03132139F
:1035D000B4331112110011201100523312133211A1
:1035E0002001222485042304020342410001E0A0BB
:1035F0005112141315131534133251400120115276
:10360000133231000122230405040504230103823F
:10361000612001E01180113213541514333231400E
:1036200021020100317231410223442302012201AF
:10363000220102614001A0118051121413341514AB
:1036400033123140010201030201205211122021E4
:103650002243042241022102A10001E02011405135
:1036600053741332114021020302030201001112AC
:10367000113200114122232221004102A180016068
:1036800011601100113233741312114001620302F0
:103690000321311211121140010201020302010043
:1036A0000100E121E0A01120121173343331200117
:1036B0006203624012111211001101000102012285
:1036C0000001200100E1C00100118011001211135E
:1036D00012141334522001E2022120311211001180
:1036E000000100210201000140210002410001E02F
:1036F000601140111211131214131413321100210E
:1037000022034201022100010011001211001120C8
:10371000010041600100C100014011200160114021
:103720005112131213143312310001420322010209
:10373000210001401100310011000100010001A031
:10374000E10001A00180112031529312110021C229
:1037500021002140310011201100010001E0E16051
:1037600001E01100117273123100214203010201C4
:103770000220214011001120116001401160010060
:1037800001022102000120014001A0513213125315
:1037900032112001020182210021000100110031BB
:1037A000E00011001160210001020102010100216D
:1037B0002001000160110011521312141352110064
:1037C0004182010200010021401100110011A011ED
:1037D00000310011208122010100020100210001BD
:1037E000601100521312131413323101000201222E
:1037F00001420100210001000111201100112011DE
:103800004071001140010221020102010021022148
:103810000001000100110012111233123413321191
:10382000200102014201220100410001601120112A
:103830000011001100511231206102012202000228
:103840000102812011001211733413321100410260
:1038500001820100610001801100110091323140AC
:1038600021420102020062614011521413543331AB
:103870000041820122000102004100016091121109
:1038800052512001220103010202008261005133E2
:103890005415143331002102012203424102A18058
:1038A000319213323100412203020103002203222C
:1038B000010201401112339533310100220103420C
:1038C000032221220102610001110011521312533F
:1038D00012310041220322030023020302010221CC
:1038E0002032131416151716153311200162030226
:1038F0000302032201A24140111253141314133284
:10390000110100020102030203020200022302036A
:1039100022212032141637181715131211002122F4
:1039200003024302430103020382212011121314F4
:1039300015341514321100016223020300430203FF
:1039400042012012131518193A17151311002102FC
:1039500003026304E3020302030201024012131490
:1039600015171516341220212243020300A3220149
:1039700000111215181C1E1D191613110002010347
:103980000203042304032403044304230403020363
:103990004220111214151718361513312102030293
:1039A000230203241E191512100E0C0B0A09090913
:1039B00008080807060605040404030404040000BC
:1039C00000000000000000002726212325232524D5
:1039D0002722292A2A1C27282B33322725222C3359
:1039E000313037000000000000000000000000003F
:1039F00001FFFFE000000000000001FFFFF00000F9
:103A00000000000001FFFFF800000000000001FFBF
:103A1000FFFE00000000000003FFFFFF00000000A9
:103A2000000003FFFFFFF000000000000FFFFFFF9A
:103A3000FE00000003FFFFFC000007FC00007FFF0A
:103A4000FFFC000000000000001FFFFE000000005F
:103A50000096918C87827D78736E69645F5A5550A9
:103A60004B46413C37322D28231E19140F0A0500FE
:103A700004090E13181D22272C31363B40454A4FAE
:103A800054595E63686D72777C81868B90959A9F9E
:103A9000A4A9AEB3AFAAA5A09B968F89837E7873A5
:103AA0006E69645F5A55504B47423E3935302C277A
:103AB000231F1B16120E09050103070B1014191DF5
:103AC00022262B2F34393D42474C51565B60656BA3
:103AD00070757B80868C92979DA3A9AFB2ACA6A08F
:103AE0009A948F827C76706B65605C57524E4A4622
:103AF000413D3936322E2A26221F1B1713100C087F
:103B0000040102060A0E12161A1E22262B2F333823
:103B10003D41464B4F54595E64696F747A80878D7E
:103B2000949BA2AAB1AEA69F979089826F68635EAC
:103B30005955514D4946423F3C3835322E2B2824A9
:103B4000211E1A1714100D0A0603000306090D1092
:103B500014181C2024282C3034393D41464A4F5437
:103B6000585D62676D737980878F98A2ACB0A59A13
:103B700090867D766F55514D4A4744413F3C3A38D7
:103B80003533312E2B292623201D1A1713100D0A29
:103B9000070401010306090D1013171A1E22262A15
:103BA0002E32363A3E42464A4E53575B5F64696E48
:103BB000757C85909FB2A08D7D7067605A553E3CA4
:103BC0003A393736343332302F2E2C2A2927242203
:103BD0001F1C191613100D0A070402000305080A1A
:103BE0000D1013161A1D2125292D3135383C40435F
:103BF000464A4D505356595B5E6165696F826D54FC
:103C00004D4A474442403E2E2E2D2C2C2B2A2A2949
:103C100029282726252423211F1C1A1714100D0AD2
:103C200007040101030507090C0E1013161A1D21C4
:103C300024282C3033373A3D40424447484A4A4BC7
:103C40004A48443D3019021621282B2D2E2F2E2EA6
:103C500006090C0F121517191B1C1B1811040E2234
:103C600031383C3C3C3A3835322F2B2824201C1963
:103C700015110D09050102060A0E1115181C1F2247
:103C80002527292A2B2B2926211911080004080A87
:103C90000A0A0807040200030616181A1C1E20212F
:103CA0001F1712516063625F5D5956524E4A464279
:103CB0003E3935312C2824201B17130E0A06010229
:103CC000060A0F13171B1F23262A2D313437393CC0
:103CD0003D3F3F3E3D39352F28211C171513131347
:103CE0001416A8ADB2B0ABA6A19C97928D88837E26
:103CF00079746F6A65605B56514C47423D38332E8C
:103D000029241F1A15100B060103080D12171C2178
:103D1000262B30353A3F44494E53585D62676C71EB
:103D2000767B80858A8F94999EA3A80100454E4199
:103D3000424C4500000000000000000000000200AE
:103D4000000000000101545950450000000000002F
:103D5000000000000000000300000040400102419C
:103D60004354494F4E0000000000000000000000D6
:103D700004000000803F0403414C545F4D41580053
:103D800000000000000000000005000000C8420420
:103D90000452414449555300000000000000000057
:103DA000000009000000964304054D415247494E6A
:103DB00000000000000000000000000D00000000F6
:103DC0004000FF00000000000000000000000000B4
:103DD0000000000000000000000053636865647587
:103DE0006C6572206F76657272756E207461736B8C
:103DF0005B25755D202825752F2575290A005363DD
:103E0000686564756C657220736C69702074617389
:103E10006B5B25755D202825752F25752F25752948
:103E20000A00010044454255470000000000000020
:103E3000000000000000000000000000FF00000083
:103E40000000000000000000000000000000000072
:103E5000000000000100524F4C4C00000000000028
:103E60000000000000000000000000803F01015041
:103E7000495443480000000000000000000000001A
:103E800001000000004001025448524F54544C4578
:103E9000000000000000000000030000004040019E
:103EA000035941570000000000000000000000001E
:103EB000000002000000804000FF00000000000041
:103EC00000000000000000000000000000000000F2
:103ED0000001004D4F4E49544F52000000000000B9
:103EE000000000000000000000000101564F4C548B
:103EF0005F50494E0000000000000000000100007B
:103F00000050410102435552525F50494E0000009B
:103F10000000000000000200000040410403564F72
:103F20004C545F4D554C540000000000000000034D
:103F3000009A9921410404414D505F504552564F1B
:103F40004C540000000000000700000088410405F8
:103F5000414D505F4F46465345540000000000005D
:103F6000000B000000000003064341504143495448
:103F7000590000000000000000000F0000404E4506
:103F80000107564F4C54325F50494E00000000006C
:103F90000000001300000080BF0408564F4C54324C
:103FA0005F4D554C5400000000000000140000005C
:103FB000803F00FF00000000000000000000000043
:103FC000000000000000000000000000FF000000F2
:103FD00000000000000000000000000000000000E1
:103FE00000000000439173A090AF03B8F8BBFCBB86
:103FF000D2BC3604C403FC03DC9411241FBECFEFF3
:10400000D1E2DEBFCDBF00E00CBF15E0A0E0B2E022
:10401000EEE9FBE803E00BBF02C007900D92A0366B
:10402000B107D9F717E1A0E6B5E001C01D92A334AE
:10403000B107E1F71FE3C8EFDFE300E006C0229716
:104040000109FE010BBF0F9494C3C43ED10780E069
:104050000807A9F70E9413830D94BEC50C940000B5
:104060000895E0918610F09187100084F185E02D8D
:1040700086E890E11995089508950895A091A914EE
:10408000B091AA14ED91FC9111970280F381E02D7B
:10409000CD01199508958091A9149091AA14DC017D
:1040A000ED91FC910480F581E02D199508958091A2
:1040B000A9149091AA14DC01ED91FC910680F7817E
:1040C000E02D199508958F929F92AF92BF92CF9253
:1040D000DF92EF92FF928090210690902206A090AE
:1040E0002306B090240620E030E0A901C501B40108
:1040F0000F94B4BD882309F482C0C0901106D090FB
:104100001206E0901306F090140620E030E0A901BA
:10411000C701B6010F94B4BD882309F470C0809222
:10412000781390927913A0927A13B0927B138091B6
:104130001D0690911E06A0911F06B0912006809347
:104140007C1390937D13A0937E13B0937F13809183
:10415000190690911A06A0911B06B0911C06809337
:10416000801390938113A0938213B0938313809153
:10417000150690911606A0911706B0911806809327
:10418000701490937114A0937214B0937314C0922E
:104190009613D0929713E0929813F092991380910E
:1041A0000D0690910E06A0910F06B0911006809317
:1041B0009A1390939B13A0939C13B0939D1380919B
:1041C000090690910A06A0910B06B0910C06809307
:1041D0009E1390939F13A093A013B093A11380916B
:1041E000050690910606A0910706B09108068093F7
:1041F000741490937514A0937614B0937714FF9071
:10420000EF90DF90CF90BF90AF909F908F900895E8
:104210008F929F92AF92BF92CF92DF92EF92FF92D6
:104220008090210690902206A0902306B09024064C
:1042300020E030E0A901C501B4010F94B4BD88238A
:1042400009F482C0C0901106D0901206E0901306C7
:10425000F090140620E030E0A901C701B6010F94E8
:10426000B4BD882309F470C08092781390927913BA
:10427000A0927A13B0927B132DEC3CEC4CEC5DE3F6
:10428000C501B4010F9481C060937C1370937D13BA
:1042900080937E1390937F138091190690911A0654
:1042A000A0911B06B0911C068093801390938113FC
:1042B000A0938213B09383138091150690911606F4
:1042C000A0911706B0911806809370149093711402
:1042D000A0937214B0937314C0929613D092971354
:1042E000E0929813F09299132DEC3CEC4CEC5DE3CA
:1042F000C701B6010F9481C060939A1370939B130A
:1043000080939C1390939D138091090690910A06C7
:10431000A0910B06B0910C0680939E1390939F136F
:10432000A093A013B093A113809105069091060667
:10433000A0910706B09108068093741490937514A9
:10434000A0937614B0937714FF90EF90DF90CF9006
:10435000BF90AF909F908F900895A0E0B0E0E3EB06
:10436000F1E20D94F8C2EC018B0128813981FB0147
:1043700080819181121613061CF497FF07C010C0AC
:104380002115310519F01816190654F0AC0197FFE4
:1043900004C044275527481B590B493057401CF08F
:1043A000998388839BC0B901882777FD8095982FD2
:1043B000E0900012F0900112121613060CF046C0A5
:1043C0000F9456BE4B015C012DEC3CEC4CE45DE3DC
:1043D0000F9481C02B013C011E141F04ACF4B701E3
:1043E000882777FD8095982F0F9456BE6B017C012E
:1043F0009B01AC01B201C3010F9431C018168CF0BF
:1044000026019E2D8F2D0FC020E030E040E85FE3B5
:104410000F9431C018162CF0412C512C90E88FE3EA
:1044200002C0962D872D9201492F582FC501B40146
:104430000F94D6BC0F9423BE79836883F801208142
:104440003181621773070CF047C045C00F9456BE08
:104450004B015C0190582DEC3CEC4CE45DE30F9477
:1044600081C02B013C011E141F04ACF4B701882746
:1044700077FD8095982F0F9456BE6B017C019B01B0
:10448000AC01B201C3010F9431C018168CF02601A3
:104490009E2D8F2D0FC020E030E040E85FE30F94A9
:1044A00031C018162CF0412C512C90E88FE302C03B
:1044B000962D872D9201492F582FC501B4010F94D5
:1044C000D7BC0F9423BE79836883F80120813181A2
:1044D000261737070CF4B90179836883CDB7DEB7A7
:1044E000E0E10D9414C3EBEAF5E08081887F8560FC
:1044F000808382E390E09093C4058093C30510927B
:10450000AE051092AD058091DA059091DB05909390
:10451000C8058093C7050895EBEAF5E08081877CA4
:104520008862808382E390E09093C6058093C505FE
:104530001092B0051092AF058091DC059091DD05D9
:104540009093CA058093C90508958B3039F020F403
:104550008350853028F402C0803111F481E0089541
:1045600080E00895823010F481E0089580E008959D
:104570008091660B80FF18C080913811909139119D
:10458000039794F080910D1181FD0EC08091580B1E
:1045900083FD0AC09091A60590FD06C085FB882783
:1045A00080F991E08927089580E0089520E030E0C7
:1045B000FC01E20FF31F12821382148215822C5F1A
:1045C0003F4F2C313105A1F7FC01168E0895FC01F7
:1045D000968D81E0890F868FDF0124E0929FA00DE8
:1045E000B11D112412964D935D936D937C93159795
:1045F000873008F0168ECB01BA0108958AE696E05E
:104600000D949F8D0895CF93DF93EC0180916A0BF9
:10461000882329F0BE018AE69BE00E946FC6809144
:10462000410C882329F0BE0181E49CE00E946FC602
:10463000DF91CF9108958CE190E0E5CF089580E07F
:1046400090E0E1CF089580916A0B882331F060E01B
:1046500070E08AE69BE00E948EC88091410C88231E
:1046600031F060E070E081E49CE00C948EC8089525
:10467000A0E0B0E0EEE3F3E20D9400C380917B0A8A
:1046800090917C0AA0917D0A6091E1117091E211F4
:104690009B01442737FD4095281739074A0744F402
:1046A0009C014A2F552747FD5095CA01B90104C006
:1046B000882777FD8095982F0F9456BE8B01D82FB1
:1046C000C92F8AE396E00F945BB380FF26C0209148
:1046D0004706309148064091490650914A0660913C
:1046E0003F067091400680914106909142060F94DA
:1046F000D6BC20E030E048EC52E40F9481C06B015E
:104700007C019B01AC01B8018D2F9C2F0F94B4BD8F
:1047100087FD03C08601DE2DCF2DB8018D2F9C2F84
:10472000CDB7DEB7E8E00D941CC30F931F93CF9372
:10473000DF93EC018B0180916A0B882331F0AB0190
:10474000BE018AE69BE00E9425C78091410C882328
:1047500031F0A801BE0181E49CE00E9425C7DF91F1
:10476000CF911F910F9108958FEA91E10D942AB88E
:1047700008958091F411882321F086E89FE00D943C
:1047800015020895A0E0B0E0E8ECF3E20D94FCC25D
:104790005A01E901E12CF12C00E81FE320E030E0B0
:1047A000A9010F94F80A6B017C01B501882777FDF8
:1047B0008095982F0F9456BE9B01AC01C701B6019E
:1047C0000F9481C04B015C01A701960160E070E08D
:1047D00080E89FE30F94D6BC6B017C01BE01882763
:1047E00077FD8095982F0F9456BE9B01AC01C701B1
:1047F000B6010F9481C09B01AC01C501B4010F94B7
:10480000D7BC0F9423BECB01CDB7DEB7ECE00D943F
:1048100018C3A0E0B0E0EFE0F4E20D94FCC28B011D
:104820007A01E90144E951E16CE67EEE0F943B0B1D
:104830006C0144E951E16CE67EEEC8010F943B0B3C
:104840008C016091821470918314643981E178073E
:1048500031F4F701D182C0821983088346C0809168
:104860006A0590916B0568177907C1F070936B0525
:1048700060936A05882777FD8095982F0F9456BE20
:1048800020E030EA4CE855E40F94BBBD609306028B
:1048900070930702809308029093090280900602A9
:1048A00090900702A0900802B0900902B6018827F4
:1048B00077FD8095982F0F9456BEA50194010F9413
:1048C00081C00F9423BEF70171836083B8018827EC
:1048D00077FD8095982F0F9456BEA50194010F94F3
:1048E00081C00F9423BE79836883CDB7DEB7ECE037
:1048F0000D9418C3A0E0B0E0E0E8F4E20D94FCC22F
:10490000EC016A017B01009100121091011220E07C
:1049100030E0A901C701B6010F9431C04091B10543
:104920005091B2056091B3057091B40587FD12C036
:10493000CB01BA019058A70196010F9481C04B0199
:104940005C0120E030E040E752E4C701B6010F947B
:10495000D7BC11C0CB01BA019058A70196010F94A2
:1049600081C04B015C01A701960160E070E080E727
:1049700092E40F94D6BC9B01AC0160E070E08AEF3A
:1049800093E40F94BBBD20E030E040E85FE30F9478
:10499000D7BC9B01AC01C501B4010F9481C0288133
:1049A00039817901E00EF11EA901401B510B8A01EA
:1049B0000F9423BEDC01CB01A701B8010F943B0B80
:1049C00099838883409102125091031266277727BA
:1049D000641B750B0F943B0B99838883CDB7DEB7AF
:1049E000ECE00D9418C38F929F92AF92BF92EF921A
:1049F0000F931F938091E506882309F455C08150D9
:104A00008093E50680913D17826080933D17609109
:104A10003B1270913C12882777FD8095982F0F9458
:104A200056BE20E030E04AE755E40F94BBBD0F943A
:104A30005D0B4B015C0160915812709159128827EF
:104A400077FD8095982F0F9456BE20E030E04AE71E
:104A500055E40F94BBBD0F945D0B8B019C018091BD
:104A60008C0D826080938C0DE0915A0DF0915B0D5E
:104A7000EE24E3948091E5068111E12C00A4F1A5D8
:104A8000E02DB501A4018AE59DE019958091E50628
:104A900081110AC080918C0D8D7F80938C0D809147
:104AA0003D178D7F80933D171F910F91EF90BF9021
:104AB000AF909F908F9008958091650B982F9D7F68
:104AC000953029F489E297E00F9414A710C0833041
:104AD00051F0863041F0843099F48091F80A909139
:104AE000F90A019769F489E297E00F9431A760937E
:104AF000090B70930A0B80930B0B90930C0B08958A
:104B00001092090B10920A0B10920B0B10920C0BC7
:104B1000089586E890E10F94A80086E890E10E944D
:104B200020FA20E030E048EC52E40F9481C00F946A
:104B300023BE60938A0A70938B0A80938C0A9093A9
:104B40008D0A86E890E10E94A3FA20E030E048EC6C
:104B500052E40F9481C06093860A7093870A809311
:104B6000880A9093890A8EE690E10E94C8FA8091A3
:104B7000701081FF12C08091670B85FD0EC080917F
:104B8000AB149091AC14DC01ED91FC910280F381A7
:104B9000E02D199521E0019709F420E080913C1760
:104BA00085FB992790F9921721F020FB85F98093D6
:104BB0003C1710928F0A10928E0A0895CF93C82F37
:104BC00066ED7DE081E090E0B0DD86E890E1CC2309
:104BD00019F00E9457F802C00E94D9F967EB7DE0F6
:104BE00081E090E0A2DDCF910895CF93DF93C8E2FA
:104BF000D0E08091801490918114DC01ED91FC91C2
:104C00000284F385E02D65E37DE0199521972097D7
:104C100081F780918014909181140E94E8A3DF9124
:104C2000CF910895CF92DF92EF92FF920F931F934F
:104C30008091A9149091AA14DC01ED91FC91068059
:104C4000F781E02D19952091EA063091EB0640910D
:104C5000A3055091A4052417350779F03093A405D6
:104C60002093A30560939F057093A0058093A105F1
:104C70009093A20510929E053DC020910E02222322
:104C8000C9F100919F051091A0052091A1053091D7
:104C9000A2056B017C01C01AD10AE20AF30A97014E
:104CA000860141E8C41644E8D4064EE1E406F10466
:104CB00018F041E040939E0540919E054423D1F0B9
:104CC000013412442F403105A8F060939F05709382
:104CD000A0058093A1059093A20580911C0B80FFF5
:104CE00009C060E081E19BE00F944B8281E19BE091
:104CF0000F94E7831F910F91FF90EF90DF90CF907B
:104D0000089582E098E00F946F6C61E081E19BE090
:104D10000D949A8308952F923F924F925F926F92D3
:104D20007F928F929F92AF92BF92CF92DF92EF923B
:104D3000FF920F93CF93DF93CDB7DEB7A8970FB64F
:104D4000F894DEBF0FBECDBF1C01E091690F8CE06F
:104D5000E89FF0011124ED5CF04F80859185A285DC
:104D6000B3858D8F9E8FAF8FB8A384819581A681E7
:104D7000B78189A39AA3ABA3BCA3C080D180E280F2
:104D8000F3808090640D9090650DA090660DB090BA
:104D9000670D4090600D5090610D6090620D7090B5
:104DA000630D80915C0D90915D0DA0915E0DB091B1
:104DB0005F0D8DA39EA3AFA3B8A76DD969837A8336
:104DC0008B839C838DA19EA1AFA1B8A58D839E836B
:104DD000AF83B88749865A866B867C868D869E8689
:104DE000AF86B88AC98ADA8AEB8AFC8A89A19AA135
:104DF000ABA1BCA18D8B9E8BAF8BB88F8D8D9E8D03
:104E0000AF8DB8A1898F9A8FAB8FBC8F07E22CE151
:104E1000AE014F5F5F4F6EE1C1010E9482D2A89642
:104E20000FB6F894DEBF0FBECDBFDF91CF910F91CB
:104E3000FF90EF90DF90CF90BF90AF909F908F90BA
:104E40007F906F905F904F903F902F900895A6E2D3
:104E5000B0E0EDE2F7E20D94F6C21C01809138114A
:104E60009091391102974CF080902F119090301151
:104E7000A0903111B090321103C00DD94B015C01EB
:104E80002091700D3091710D3E8F2D8FC090571174
:104E9000D0905811E0905911F0905A1120E030E074
:104EA00048EC52E460915B1170915C1180915D114E
:104EB00090915E110F9481C00F9423BE6BA37CA3CD
:104EC0008DA39EA320917B0A30917C0A40917D0A9C
:104ED000552747FD5095AAE0B0E00F9455C12B012E
:104EE0003C012091411130914211409143115527CD
:104EF00047FD50950F9455C12091820A3091830A45
:104F00004091840A5091850A2F8F38A349A35AA350
:104F100000917E0A10917F0A2091800A3091810AC7
:104F200089829A82AB82BC820D831E832F8338874D
:104F30002F8D38A149A15AA129873A874B875C87D1
:104F40006D877E878F87988B498A5A8A6B8A7C8A7D
:104F500020E030E048EC52E4C701B6010F9481C074
:104F60000F9423BE7E8B6D8B4BA15CA1588F4F8B12
:104F700020E030E048EC52ECC701B6010F9481C04C
:104F80000F9423BE7A8F698F8D8D9E8D9C8F8B8F12
:104F900008E62CE1AE014F5F5F4F61E2C1010E9464
:104FA00082D2A696E2E10D9412C34F925F926F9265
:104FB0007F928F929F92AF92BF92EF92FF920F9348
:104FC0001F93CF93DF93CDB7DEB764970FB6F894F6
:104FD000DEBF0FBECDBF7C016091900A7091910A37
:104FE000882777FD8095982F0F9456BE20E030E0FB
:104FF00048EC52E40F94BBBD4B015C0180917B0AED
:1050000090917C0AA0917D0A9C014A2F552747FD6B
:105010005095CA01B9010F9456BE20E030E048EC2B
:1050200052E40F94BBBD2B013C018091771290910B
:1050300078126AE070E00F9494C18B016091700D5A
:105040007091710D8091720D9091730D24E630E096
:1050500040E050E00F94C9C1CA01B90128E631E02F
:1050600040E050E00F94C9C120914C1130914D1196
:1050700040914E1150914F1129833A834B835C83A9
:105080002D833E834F83588749865A866B867C865C
:105090008D869E86AF86B88A7A8B698B1C8B0B8B2C
:1050A00004E124E1AE014F5F5F4F6AE4C7010E9453
:1050B00082D264960FB6F894DEBF0FBECDBFDF91EB
:1050C000CF911F910F91FF90EF90BF90AF909F9065
:1050D0008F907F906F905F904F9008950F93CF9334
:1050E000DF931F921F92CDB7DEB72091260D30912E
:1050F000270D2F3F4FEF340719F440E020E002C0A6
:10510000422F232F49832A830CE122E0AE014F5F17
:105110005F4F6AE20E9482D20F900F90DF91CF9191
:105120000F9108950F93CF93DF93CDB7DEB72897F4
:105130000FB6F894DEBF0FBECDBF20913C062223F0
:1051400049F1F0915F06F0FD02C0E0E001C0E2E04D
:10515000F1FDE3E020916406309165064091600620
:1051600050916106609162067091630649835A838B
:105170006B837C833E832D8321E0F11101C020E00D
:105180002F83E8870DEB28E0AE014F5F5F4F62EAA7
:105190000E9482D228960FB6F894DEBF0FBECDBF14
:1051A000DF91CF910F910895A3E0B0E0EAEDF8E22E
:1051B0000D9402C37C018091991490919A14DC01A2
:1051C000ED91FC910488F589E02D1995182F8091B7
:1051D0009D1490919E14DC01ED91FC910480F58169
:1051E000E02D199520E030E04AE754E40F9481C0A7
:1051F0000F9428BE7A8369831B8305E123E0AE0107
:105200004F5F5F4F65EAC7010E9482D22396E6E0B6
:105210000D941EC3A0E0B0E0E0E1F9E20D9404C3F8
:10522000FE0138962191319181E080936D0B8F01C1
:1052300042E350E06EE67BE08091AB149091AC14B9
:105240000E946CA262E170E08AE69BE00E946FC659
:105250008091410C882379F083E3EDE6FBE0A4E440
:10526000BCE001900D928A95E1F762E170E081E483
:105270009CE00E946FC6E4E00D9420C38091660B11
:1052800087FD06C08091680B82FB882780F908950E
:1052900081E008958091680B80FF2DC08E7F809300
:1052A000680B60E081E19BE00F944B8210929A05BD
:1052B00010929B0510929C0510929D0510929605E8
:1052C00010929705109298051092990582E192E14B
:1052D0000E944A9B87EE91E10E944A9B80EF91E1F8
:1052E0000E944A9B81EF91E10E944A9B80913D1769
:1052F0008B7F80933D1708958091650B982F9D7F3C
:10530000953039F480912E0790912F070F945071AA
:1053100010C0833051F0863041F08430A9F4809180
:10532000F80A9091F90A019779F489E297E00F94CD
:10533000CDA30F9428BE6093FD0A7093FE0A80935C
:10534000FF0A9093000B08951092FD0A1092FE0A36
:105350001092FF0A1092000B0895CF92DF92EF9205
:10536000FF920F931F930091050B1091060B209154
:10537000070B3091080B8091EC0A9091ED0AA091F7
:10538000EE0AB091EF0A801B910BA20BB30BB7FF93
:1053900007C0B095A095909581959F4FAF4FBF4F97
:1053A000853F9140A105B10594F10093EC0A10935B
:1053B000ED0A2093EE0A3093EF0AC901B801605B51
:1053C000794B8F4F9F4F24E630E040E050E00F9440
:1053D000C9C1CA01B9010F9456BE0F945D0B6B0190
:1053E0007C010F94B8BD60931402709315028093F2
:1053F000160290931702C701B6010F94E4C06093A0
:10540000E80A7093E90A8093EA0A9093EB0A1F91E5
:105410000F91FF90EF90DF90CF90089586E89FE086
:105420000F94CA048823F1F086E89FE00F94E80205
:105430008823C1F086E89FE090938E0D80938D0DB8
:105440008091880D992787FD9095E091950DF091B9
:10545000960DEA5BFF4F9183808390934810809371
:10546000471008958091801490918114DC01ED9192
:10547000FC910484F585E02D69E47CE0199508959C
:1054800020E030E0A9016091FA117091FB11809148
:10549000FC119091FD110F94B4BD18161CF01092E0
:1054A0005E0B08958091D0069091D106DC01ED91BC
:1054B000FC910480F581E02D6091F911199580919E
:1054C000D0069091D106DC01ED91FC910284F38528
:1054D000E02D199520E030E04FE753E40F9481C0B0
:1054E0002091FA113091FB114091FC115091FD1166
:1054F0000F94BBBD0F9423BEDC01CB014FEF50E0F6
:1055000060E070E00F943B0B80935E0B0895CF92A8
:10551000DF92EF92FF92CF93DF93D82F80912F12DB
:10552000813011F083FF66C08091650B0ED8C82FC3
:105530008091F011833009F4C1E08AE396E00F9482
:105540005BB381FD03C0CC2309F454C080910D11DD
:1055500081FF06C0DD2309F440C068EA7EE03AC05E
:1055600007D8C82F81110BC0DD2329F064E97EE044
:1055700083E090E0DAD880913D178E7F38C08BE2CF
:105580009AE00F944C1D6B017C0120E030E0A901F2
:105590000F94B4BD882351F020E030E048E452E499
:1055A000C701B6010F9431C018162CF4DD23A9F001
:1055B0006FE77EE00FC0409154115091551120913A
:1055C000F2113091F3112417350770F4DD2329F01F
:1055D00069E67EE083E090E0A8D880913D178E7F59
:1055E00080933D17C0E00CC080913D17816080938F
:1055F0003D1706C080913D17816080933D17C1E043
:105600008C2FDF91CF91FF90EF90DF90CF90089596
:105610000F931F93CF93DF938091A3149091A414C1
:10562000DC01ED91FC910088F189E02D19959091B4
:10563000670B95FB222720F98217F1F080FB95F983
:105640009093670BC0918F14D0919014E881F981E9
:105650000689178995FF05C08091DC119091DD11B5
:1056600004C08091DE119091DF110E94E994AB019A
:10567000BC01CE01F8011995DF91CF911F910F91D7
:10568000089580917B0A90917C0AA0917D0A883EC2
:105690009340A1054CF060912D0870912E088091E7
:1056A0002F08909130080895809108129091091266
:1056B00097FF03C091958195910966277727681B0D
:1056C000790B882777FD8095982F0D9456BE4F92C1
:1056D0005F926F927F928F929F92AF92BF92CF9282
:1056E000DF92EF92FF92CF93DF93009741F02091EA
:1056F000171230911812243F314021F48FC080E0FE
:1057000090E08CC048EE53E060E070E00F943B0BFB
:105710005C014CEB52E06CE271E0809117129091C9
:1057200018120F943B0BEC019093181280931712F0
:1057300044EFA41641E0B406C4F580900E12909098
:105740000F12B401882777FD8095982F0F9456BECD
:105750006B017C01B50168197909882777FD80956F
:10576000982F0F9456BE2B013C01BE016819790990
:10577000882777FD8095982F0F9456BE9B01AC012A
:10578000C301B2010F9481C02B013C0164EF71E0B1
:1057900068197909882777FD8095982F0F9456BE50
:1057A0009B01AC01C301B2012DC084EFA81681E0BA
:1057B000B80699F1BE01882777FD8095982F0F9440
:1057C00056BE6B017C01B501645F7140882777FD8F
:1057D0008095982F0F9456BE4B015C0168EE73E0E4
:1057E0006C1B7D0B882777FD8095982F0F9456BEF4
:1057F0009B01AC01C501B4010F9481C020E030E0F1
:105800004AEF53E40F94BBBD9B01AC01C701B60145
:105810000F94D7BC0F9423BEEB01CE01DF91CF9143
:10582000FF90EF90DF90CF90BF90AF909F908F90C0
:105830007F906F905F904F900895CF92DF92EF929C
:10584000FF92CF93DF9320E030E0A9016091E00A5E
:105850007091E10A8091E20A9091E30A0F94B4BD3D
:1058600081111AC06091151270911612882777FD68
:105870008095982F0F9456BE6093E00A7093E10ACA
:105880008093E20A9093E30A6093190870931A08D0
:1058900080931B0890931C0880911C0B80FF77C09D
:1058A0008091660B87FD73C0C0917712D0917812FA
:1058B00080910E1290910F128C179D070CF067C00B
:1058C0008091900A9091910ACB968737910508F0C4
:1058D0005EC08091680D9091690DA0916A0DB091A4
:1058E0006B0D8D509E4FAF4FBF4F873E9340A1052C
:1058F000B10508F04CC080916C0D90916D0DA09198
:105900006E0DB0916F0D8D509E4FAF4FBF4F873EC4
:105910009340A105B105D8F524EA30E74DE75FE3F0
:105920006091E00A7091E10A8091E20A9091E30AA5
:105930000F9481C06B017C01BE01882777FD8095A3
:10594000982F0F9456BE2AE037ED43E25CE30F94A4
:1059500081C09B01AC01C701B6010F94D7BC6B019C
:105960007C016093E00A7093E10A8093E20A9093CD
:10597000E30A0F9423BE7093161260931512C0921F
:105980001908D0921A08E0921B08F0921C08DF91C7
:10599000CF91FF90EF90DF90CF900895CF93DF935A
:1059A0002091580B21FD47C048EE53E060E070E0C5
:1059B0000F943B0BEC0140E951E060E070E0809116
:1059C000191290911A120F943B0BBC0190931A126A
:1059D0008093191244EF51E0481B590BC417D507A7
:1059E00054F420910A1230910B12DC01A45FB140F3
:1059F000AC0FBD1F0EC08C509E4F8C179D07A4F49A
:105A000020910A1230910B12DE01A61BB70BA45F86
:105A1000B1400F943AC19A01442737FD4095542F65
:105A20000F94C9C1C90102C080E090E08093DE0AF2
:105A30009093DF0A02C080E090E0DF91CF9108955B
:105A400021E0FC013081361301C020E0FC016083BD
:105A5000622F0C949D9E08952F923F924F925F92D9
:105A60006F927F928F929F92AF92BF92CF92DF926E
:105A7000EF92FF920F93CF93DF93CDB7DEB7A2974C
:105A80000FB6F894DEBF0FBECDBF1C0182E098E0D8
:105A90000F944D6C4B015C016091FD0A7091FE0A00
:105AA0008091FF0A9091000B0F9454BE20E030E0EB
:105AB00048EC52E40F94BBBD0F9428BE6B8F7C8FD3
:105AC0008D8F9E8F6091090B70910A0B80910B0B4B
:105AD00090910C0B0F9456BE20E030E048EC52E45D
